:020000040800F2
:1000000060050020D9000008DD210008D71C000889
:1000100000000000000000000000000000000000E0
:10002000000000000000000000000000A123000804
:100030000000000000000000DF2100082524000867
:10004000EB00000800000000EB000008EB000008D7
:10005000EB000008EB000008EB00000811060008A8
:1000600000000000EB000008EB000008EB000008B7
:10007000EB000008EB000008EB00000800000000A7
:10008000EB000008000000000000000099240008B8
:1000900000000000EB000008EB000008EB00000887
:1000A000EB000008EB000008EB000008EB00000884
:1000B000EB0000080000000000000000000000004D
:1000C0000448854600F092FA00480047C52500081C
:1000D000C046C046600500200448804704480047E9
:1000E000FEE7FEE7FEE7FEE7FEE7FEE795240008F1
:1000F000C100000830B50B46014600202022012433
:1001000009E00D46D5409D4205D31D469540491B4B
:100110002546954040191546521E002DF1DC30BD94
:10012000D2B201E00270401C491EFBD2704700228F
:10013000F6E710B513460A4604461946FFF7F0FFE6
:10014000204610BDF0B507460846584087B0C00F9E
:10015000049048000E46590040084908BC1A8841DE
:1001600005D2384631461E4617460B460246580011
:10017000400810434DD0300D039040055900400D0C
:10018000490D0590401A0290402873DA18030121A6
:10019000000B09050843019004980092002806D03E
:1001A0001146019A49420020904100910190029825
:1001B00040210A1A0199009800F084F905460C467E
:1001C0006B4607CB00F09FF9C0197141039A0E0DE1
:1001D0000023D71756401A467A40164344D0049A53
:1001E000002A2DD0029A012A039A15DC1205C01AA2
:1001F000914101263605001C7141D20F059ED207A0
:100200000093019202962A46234600F09CF907B01B
:10021000F0BD38463146FAE71605234A0F46B218B4
:10022000C01AB74101210905001C4F4100187F4148
:10023000114618187941E20F10436D19644113E01B
:10024000E2076D0815436408C2071443039A0126A8
:100250001205C01A91413605001C7141CE074008B5
:1002600030434908C01851412A46234600F05EF940
:10027000CDE7FFE7049801224000C117121A0023BE
:100280008B4104983146C417381AA141EEE730B4C7
:100290000124E407634030BC54E730B40124E40790
:1002A000614030BC4EE700000000E0FFF0B51FB435
:1002B00088B00B990998002448400999C00F49005B
:1002C00049080991C0070B990090490049080B9112
:1002D00009990898A64608431CD00B990A98084328
:1002E00018D0099801244000420D4800410D09989A
:1002F00024050003000B204309900B980003000B1A
:1003000020430B9050181C494018002201901446BD
:10031000104605E0002001460DB0F0BD032801DACB
:10032000034600E003239C46C11A0AAE0AE05F00C0
:1003300008ADED5B4F00F75B7D430027AA187C41B9
:10034000491C5B1E6145F2DD410004AB5A52210499
:10035000120C0A43240C401C0828DFDB0198029091
:100360000099704601910090059B049A07990698A0
:1003700000F0E9F8D0E700000DFCFFFFF0B50C46F7
:100380005C4085B0E40FE40703944C000026640849
:1003900059009446490802460296224321D06246FB
:1003A0000A431ED06200570D4A000E032303550D69
:1003B000012402462C492405781B1B0B360B4018E0
:1003C00023432643614600901C46501AB44103D390
:1003D0000098401C009002E0921800985B410028B1
:1003E00003DA0020014605B0F0BD00200121090517
:1003F0000746864611E064461D46141BB54106D3E8
:100400006546521BB341744607430C43A646CD07CD
:1004100040084908284392185B4105460D43EAD13C
:100420001046184313D060461946504071400843A7
:1004300006D06046101AB34106D20122002306E01E
:1004400000220123DB0702E00122D243531000986F
:1004500074460105381C6141029C039D00196941E5
:1004600000F064F8BFE70000FD0300000EB5054989
:100470000291002100910A460B46019100F063F8B9
:1004800003B000BD330400004A0009030123090B37
:100490001B051943094B10B5520D9A4201DA002091
:1004A00010BD064B34339A4203DC9A1A00F01AF856
:1004B00010BD03495118884010BD0000FF03000023
:1004C000CDFBFFFF10B5202A04DB0146203A914006
:1004D000002010BD914020239C1A0346E34019439D
:1004E000904010BD10B5202A04DB0846203AD040C9
:1004F000002110BD0B46D340D0402024A21A9140C9
:100500000843194610BD10B5202A06DBCB17084654
:10051000203A1041C1170B4306E00B461341D0406F
:100520002024A21A91400843194610BD10B5002B93
:1005300008DA0024401C614192185B411A4301D142
:100540004008400010BDF0B51FB482B005460C0055
:1005500003D0084601F0ECFF02E001F0E9FF203093
:100560000246009021462846FFF7ACFF049B059AFF
:1005700004460F4618431143084314D0184610434D
:100580001BD0009840210A1A18460599FFF7AAFFC8
:1005900005460E46009A05990498FFF793FF084315
:1005A00005D0012004E02046394607B0F0BD002008
:1005B000C11705430E432C43374300990E9863053A
:1005C000401A7905E40A00220C43FD0A0A3002D5DC
:1005D00000200146E9E70105101969410C9C0D9DB9
:1005E00000196941FFF7A2FFDFE70000064C012573
:1005F000064E05E0E36807CC2B430C3C98471034CB
:10060000B442F7D3FFF760FD202700084027000819
:1006100010B5202000F07EFA10BD72B6FEE7000093
:10062000F8B500270646044640360097307D0D4653
:1006300001280FD001203075206801F0E5FC00286A
:100640000AD0A06D20210843A06501270020307545
:100650003846F8BD0220F8BD686802287ED0012225
:100660002169D207914202D0121D914206D1206821
:100670002968826A4903490B0A436EE0C206D20E1A
:100680000F20216E904081432868430302D0C307A6
:100690004BD102E04000C00E48E0830701D50120A5
:1006A00044E0430701D5022040E0030701D50320C1
:1006B0003CE0C30601D5042038E0830601D50520BF
:1006C00034E0430601D5062030E0030601D50720BB
:1006D0002CE0C30501D5082028E0830501D50920B9
:1006E00024E0430501D50A2020E0030501D50B20B5
:1006F0001CE0C30401D50C2018E0830401D50D20B3
:1007000014E0430401D50E2010E0030401D50F20AE
:100710000CE0C30301D5102008E0830301D51120AC
:1007200004E0400301D5122000E000209040014386
:1007300021666968E2698808401C904210D82068E8
:100740002B68826A9C46C906C90E0F238B409A43C8
:1007500063469B001B0F8B401A4300E03BE0826224
:100760002168AB6828684A6900028243184040014A
:10077000400902434A612868002800DB66E72B4AEB
:10078000116807239B051940294B984214D10B028D
:1007900012D4C0020143104601F03AFC2648254914
:1007A0000068FFF7A7FC0C21401C484300E0401EF6
:1007B00000900028FBD149E7204B984203D1CB01A0
:1007C00001D4800205E01E4B9842D7D14802D5D40F
:1007D0005802014325E001212069C907884202D05F
:1007E000091D884206D120682968826A4903490B9D
:1007F0008A43826228680028C0DA0C4A11680723FD
:100800009B0519400A4B984201D1C00208E00B4BEE
:10081000984201D1800203E0094B9842AED14002D8
:100820008143104601F0F4FB10E700000827014067
:10083000001000B0400D030018000020004000B878
:10084000002000B4FEB50027044601973E460297FB
:100850000097002805D02546A06D2035002802D03D
:1008600007E00120FEBD204600F0FCF8E6655420BC
:10087000065520688168C900C90F12D18168724A83
:100880001140012212071143816071486F490068CD
:10089000FFF730FC4000801C00E0401E0090002864
:1008A000FBD120688168C900C90F08D1A16D102251
:1008B0001143A165E16D01221143E165174601F085
:1008C000A3FBA16DC90601D4002804D0A06D10219E
:1008D0000843A065B4E0A06DFF21013188430221E7
:1008E0000843A065206801F08BFB00286DD1217EB4
:1008F000A06889030843617ECA03A17E4B031A43A3
:100900001043226B002A01D0012212031043E26837
:1009100010432269002A02DA5200520801E0012243
:10092000520510432A7B52001043019A10432A7843
:10093000012A09D1002922D0A16D20221143A165ED
:10094000E16D01221143E165616A002906D0FF23B0
:10095000C1331940A26A0143104608432168CA689E
:100960003C4B1A400243CA606168029A890F8907AA
:10097000E06C0A4310432A7F012A04D00CE00121D5
:1009800009040843E0E7636C226C491C1A43A36C1A
:100990000B4311461943084321680A692E4B1A403C
:1009A00002430A6103216068890788420DD0590714
:1009B00088420AD04900884207D0284A91680F230C
:1009C0009B0499431840014391600021626B2068A9
:1009D00001F025FB2249A26B206801F020FB0F20CB
:1009E0002169C04300291CD00122520591420AD13D
:1009F00021688A6A227F9200121FD206D20E90408E
:100A0000226E1043886220684069616B4007400F86
:100A100088420BD1E665A06D80088000401CA0656F
:100A20000FE021688A6A02438A62ECE7A06D022126
:100A3000884310210843A065E06D01210843E0656B
:100A400001273846FEBD0000E8FFFF7F400D030090
:100A5000180000200102DEFF02FCFF1F00270140FA
:100A600004FFFF0710B586B0044614216846FFF75F
:100A70005EFB1049206888421AD10F4802680121A4
:100A800009050A4302600068084005900A4840389A
:100A9000426B02210A434263406B0091084005907B
:100AA00003200190002002906946044800F06EF88F
:100AB00006B010BD00240140401002400004005068
:100AC00070B5044600F024F90546601C02D00448C5
:100AD0000078241800F01CF9401BA042FAD370BD26
:100AE0000C00002010B520280ED100F07DFF202141
:100AF000064800F0F9F8002806D100F009F9044989
:100B0000486001200831087010BD0000000400504A
:100B10000000002070B5084D0446E868204203D06C
:100B2000EC60204600F00AF82869204203D02C61CE
:100B30002046FFF7D7FF70BD0018024010B52028EF
:100B40001DD10F4C2021204600F0CEF8012816D1EF
:100B500000F0DEF80B494968411A7D20000181420E
:100B600004D38021204600F0C4F805E0642906D3B0
:100B70000449012008314870034800F0A1FF10BD6E
:100B8000000400500000002010010020F0B50023F8
:100B900003249AE02A4601259D402A407ED00E7902
:100BA000B607B60F012E01D0022E16D18668274651
:100BB000B4465E00B646B7406646BE43B446CF680C
:100BC0007646B7406646374387604668AE430D7940
:100BD000ED06ED0F9D40354345600D79ED43AD07C2
:100BE00008D0C5685F002646BE40B5438E68BE404B
:100BF0002E43C6600D79AD07AD0F022D0ED1DD0875
:100C0000AD002D18AC462D6A5E07F60E0F27B740D3
:100C1000BD430F69B7402F4365462F6205685F00EB
:100C20002646BE40B5430E79B607B60FBE402E43EA
:100C300006604D68AD03AD0F46D09E08264DB60048
:100C40007519AC462D6E9E07F60E0F27B740BD43B3
:100C500005273F07B84201D100270FE01F4FB842D8
:100C600001D101270AE01E4FB84201D1022705E059
:100C70001C4FB84201D1032700E00527B7402F439E
:100C8000154D664637662D684E689543F60200D5C9
:100C90001543114F3D607D68954300E014E04E68B8
:100CA000B60200D515437D600B4D80356E684F68E8
:100CB0009643BF0300D516436E602E684F68964377
:100CC000FF0300D516432E605B1C0A681546DA4008
:100CD00000D05FE7F0BD00000018024000040050A3
:100CE00000080050000C00500069084000D00120AE
:100CF0007047426913460B401B0491430B438361C9
:100D00007047002A01D081617047816270470000FE
:100D100001488068704700000C00002070B5024652
:100D200040325378202B1CD11378012B19D001238A
:100D3000137024245470046825689D43256004685A
:100D400025681E03B5432560046825680D432560AA
:100D50000068016819430160202050700020107065
:100D600070BD022070BD70B5024640325378202B12
:100D70001BD11378012B18D0012414702423537035
:100D800003681D68A5431D6005682B680F263602A1
:100D9000B3430902194329600068016821430160D7
:100DA000202050700020107070BD022070BD000027
:100DB00070B5040006D02546403568780026002826
:100DC00002D005E0012070BD2E70204600F072F9BF
:100DD00024206870206801684908490001600F21DB
:100DE0006068090688432168086121688A680120D3
:100DF000C00382438A60E1680129A1682FD02122C3
:100E000092021143226891600121E268C902022A1C
:100E10002268536825D08B43536021684A68124B7F
:100E20001A434A602168CA688243CA6061692069BE
:100E30000843A169090208432168C860216AE06982
:100E4000084321680860206801680122114301609D
:100E50006664202068702663AE70002070BD014378
:100E6000D0E70B43D8E7000000800002FFB505463D
:100E700004464035687881B0202878D12878012848
:100E800075D001202870FFF743FF0746012200902C
:100E90001923D103204600F0CFFF00283CD12220A7
:100EA00068701020A8700026666403986062049839
:100EB00060856663618D2F48FF2903D9FF22228553
:100EC00000903BE0618D218500903DE02046029935
:100ED00000F09CFF16E000F0E9FF00281CD120681C
:100EE000406A616A0870606A401C6062208D401E22
:100EF00081B22185608D401E6085608D002801D003
:100F000000290CD0608D0A9900283A462046E2D18B
:100F100001F01EF800281CD0012005B0F0BD00979C
:100F20000022802120460A9B00F086FF0028F3D192
:100F3000608DFF2805D9FF222285009601231B061C
:100F4000C4E7608D20850096208D0123C2B25B0628
:100F5000BCE721682020C86121684A68064B1A4016
:100F60004A606870AE702E700020D6E7FFE702205E
:100F7000D3E700000024008000E800FEFFB505462E
:100F800004464035687881B0202877D12878012838
:100F900074D001202870FFF7BBFE074601220090A5
:100FA0001923D103204600F047FF002851D121200A
:100FB00068701020A8700026666403986062049927
:100FC00061856663628D3949FF2A03D9FF22228534
:100FD000CB0206E0628D228501235B061204120C0F
:100FE0000FD0226800789062606A401C6062608D59
:100FF000401E6085208D401E2085401CC2B200919D
:1010000001E0002200912046029900F0FFFE16E068
:1010100000F0C9FF00281CD1606A2168007888624E
:10102000606A401C6062608D401E6085208D401E9D
:1010300080B22085618D002901D000280CD0608D00
:101040000A9900283A462046E2D100F081FF0028A4
:101050001DD0012005B0F0BD009700228021204660
:101060000A9B00F0E9FE0028F3D1608DFF2806D925
:10107000FF22228501231B060096C4E714E0608D41
:1010800020850096208D0123C2B25B06BBE7216854
:101090002020C86121684A68054B1A404A60687080
:1010A000AE702E700020D5E70220D3E7002000802C
:1010B00000E800FE30B58DB0044614216846FFF705
:1010C00036F8182105A8FFF732F81749206888423A
:1010D00027D1202000250590079505A800F000F9EC
:1010E000002801D0FFF799FA104C616B02200143F0
:1010F0006163616B02950140032000020B91009037
:101100001220019006200490039569460848FFF7D5
:101110003DFDE16B012040050143E163E16B0140CE
:101120000B910DB030BD0000005400400010024093
:101130000004005002488168027889188160704775
:101140000C00002010B508480024016882151143E6
:101150000160032000F00AF8002801D0012401E01A
:1011600000F028F8204610BD0020024070B50F4E58
:10117000002431780546002915D07D20C000FEF7F7
:10118000B9FF01460A480068FEF7B4FF00F034FCDE
:10119000002808D1042D06D200222946401E00F066
:1011A0002BF8756000E00124204670BD0C00002083
:1011B0001800002008B509480168012211430160A8
:1011C00000681040009005484038C26B01040A4393
:1011D000C263C06B0840009008BD00004010024090
:1011E000002805DBC106C90E0120884001490860BE
:1011F0007047000000E100E010B501F0B1F910BD4A
:1012000010B50F4C21680322520291430143216023
:10121000C11FFF39FA390ED10A4806210068484338
:101220000949FEF767FF401C02E0002805D0401E78
:1012300061694905F9D4002010BD032010BD0000EC
:10124000007000401800002040420F0010B50C480C
:101250000621006848430B49FEF74CFF0A490A681B
:101260000B149A430A60401C02E0002805D0401E7F
:101270004A699205F9D4002010BD032010BD00007A
:101280001800002040420F00007000400248016832
:1012900002141143016070470070004010B50C4605
:1012A0000D490028486904D0800508D4FFF7EEFFF7
:1012B00005E0800503D5FFF7C9FF002809D10748DD
:1012C0000169042291430161012C03D040BF20BF7A
:1012D00020BF10BD30BF10BD0070004000ED00E029
:1012E000F8B50446006800264D4D800358D54C489B
:1012F00000274038C06BC00009D449484038C26B51
:1013000001040A43C263C06B0840012700904548AE
:101310000168821511430160FFF7FAFC009005E0B7
:10132000FFF7F6FC0099401A022825D83D480068CE
:10133000C005F5D5E8690321090208400FD06169AD
:1013400081420CD0E86903210902EA69884301213E
:1013500009040A43EA61EA698A43EA61E861C0076D
:101360000FD0FFF7D5FC009008E0FFF7D1FC009903
:10137000411A2D48814201D9032609E0E869800716
:10138000F3D5E86903210902884361690843E861EC
:10139000002F05D022484038C26B01048A43C26343
:1013A0002078C00705D0686961688008800008431C
:1013B00068612078800606D568690321090388439F
:1013C000A168084368612088400411D568692169D3
:1013D00080008008084368610121206989078842EC
:1013E00006D10F484038C168012212041143C16080
:1013F0002088000512D56869032189038843E168C4
:10140000084368610121E0688903884206D10448E5
:101410004038C168012212041143C1603046F8BD52
:10142000401002400070004088130000F8B50F46DD
:10143000060043D04D4D28684007400FB84213D2F4
:101440002868C008C00038432860FFF761FC0446E4
:1014500005E0FFF75DFC011B4548814261D8286823
:101460004007400FB842F4D13068424C81070DD597
:10147000400704D5A068072109030843A060A068BD
:101480000F2109028843B1680843A0603078C00783
:1014900032D0706801280AD002280BD000280FD063
:1014A0003449403103280ED0C969890704E0216816
:1014B000890301E021688901002906DB0120F8BDCC
:1014C00021684905F8E7096AEFE7A168C908C9007A
:1014D0000143A160FFF71CFC009006E0FFF718FC39
:1014E0000099411A224881421BD8A068382108403F
:1014F0007168C9008842F1D128684007400FB8429E
:1015000017D91A480168C908C90039430160FFF7B3
:10151000FFFB054607E0FFF7FBFB411B1448814238
:1015200001D90320F8BD114800684007400FB842B8
:10153000F1D13078400706D5A06807210903884318
:10154000F1680843A06000F01DF8A1683C228909F9
:101550001140094A515CC906C90EC84007490860D4
:1015600007480068FFF702FEF8BD000000200240B7
:101570008813000000100240E02600081800002038
:101580001000002010B5204CA068204A8006400FB3
:1015900016D0A0688006410F501001290FD0A16815
:1015A0008906490F022912D0A0688006400F04283E
:1015B00023D0A0688006400F032821D0002010BD52
:1015C000206801218004400F8140104612E0E1684C
:1015D0008B07E1689B0F4906490F491C032B00D07C
:1015E0001046FEF787FDE1684904490E4843E1686B
:1015F000490F491CFEF77EFD10BD0120C00310BD40
:101600007D20000210BD0000001002400024F40004
:10161000F8B504007ED020783827C007E94D0028AF
:1016200046D0A868E96838408907890F102802D099
:1016300008280BD001E0032908D0012062680004CB
:1016400082420AD129680143296015E02868800395
:101650002ED560680028DDD02AE0052301211B0477
:1016600089049A422A6802D10A432A60EAE782433F
:101670002A60286888432860606800280CD0FFF73B
:1016800047FB064604E0FFF743FB801B642873D842
:1016900028688003F7D50BE0FFF73AFB064604E025
:1016A000FFF736FB801B6428F1D828688003F7D445
:1016B0002078800769D5A868E96838408A0707213B
:1016C000920FC902102802D0002813D001E0022A8C
:1016D00010D0E068002846D0286888432169084374
:1016E00028602868FF21013108432860FFF710FBBC
:1016F00006462CE02A68520502D5E268002A89D005
:101700006A687F231B029A4363691B021A436A605B
:10171000002800E08DE00ED1286888432169084345
:101720002860286801218004400F8140A648FEF708
:10173000E1FCA6490860A6480068FFF717FD0028ED
:1017400077D122E0FFF7E4FA801B02289FD82868AF
:101750004005F7D568687F2109028843616909025D
:101760000843686011E02968FF2001308143296047
:10177000FFF7CEFA064605E098E0FFF7C9FA801BAE
:10178000022884D828684005F7D42078914E0007B5
:101790002ED5A8688006400F03280AD0A06900282B
:1017A000306A16D0012108433062FFF7B1FA0746CC
:1017B0000BE0306A80071BD5A06900289FD017E096
:1017C000FFF7A6FAC01B022870D8306A8007F7D549
:1017D0000EE0400840003062FFF79AFA074604E046
:1017E000FFF796FAC01B022860D8306A8007F7D44A
:1017F000207840076CD5A86800278006400F042891
:1018000018D0E86BC00008D4E96B01200007014341
:10181000E963E96B0140012700916F480168C90540
:1018200019D40168821511430160FFF771FA009025
:101830000DE083E0F06980074AD5A06800287DD0DC
:1018400046E0FFF765FA0099401A02282ED8624850
:101850000068C005F5D5A168012910D0042005292C
:10186000F16911D049084900F161F1698143F161E1
:10187000A068002816D0FFF74BFA00900EE0F06940
:1018800001210843F061F3E70143F161F7E7FFF756
:101890003FFA0099411A5148814265D8F0698007A2
:1018A000F5D50EE0FFF734FA009007E05CE0FFF7B3
:1018B0002FFA0099411A4948814255D8F0698007AA
:1018C000F5D4002F04D0E96B012000078143E963C0
:1018D000E069002873D0A9688906490F02294DD014
:1018E000012636060228286805D0B0432860FFF795
:1018F0000FFA04463AE0B0432860FFF709FA0746BA
:1019000004E0FFF705FAC01B02282DD828688001E3
:10191000F7D4616A206AA26A0843E16A120211439D
:101920000843216B0843E9682D4A11400843E860E9
:10193000286830432860E868012100E03DE009079D
:101940000843E860FFF7E4F9044604E0FFF7E0F934
:10195000001B022808D828688001F7D52FE0FFF780
:10196000D7F9001B022801D90320F8BD286880019F
:10197000F5D4E8681B490840E86020E00128F4D06D
:10198000E868226A8107890F914216D17021626A44
:101990000140914211D17F21A26A09020140120245
:1019A00091420AD11F214904E26A0140914204D1C7
:1019B000400F216B4007884201D00120F8BD002074
:1019C000F8BD0000001002400024F40018000020C0
:1019D00010000020401002400070004088130000FA
:1019E0008C80C11FFCFFFEEF0248016902221143F7
:1019F0000161704700E000E0094910B5401E8842CF
:101A000001D9012010BD074C60610321081F00F0BF
:101A1000A7FD0020A06107202061002010BD00006C
:101A2000FFFFFF0000E000E002480169022291434D
:101A30000161704700E000E070477047704770B583
:101A4000040005D025462035687F002802D006E036
:101A5000012070BD00202877204600F017F80220F2
:101A60006877211D206800F01FFD0122403422729A
:101A7000AA77EA7722706270A270E27022716271B6
:101A8000A271E2716A77002070BD000008B500689D
:101A9000094988420FD109480268C9130A43026004
:101AA000006800220840009002211320FFF7A4FBE9
:101AB0001320FFF795FB08BD0020004040100240B6
:101AC000014620314A7F012A01D0012070470222BD
:101AD0004A770168CB6801221343CB60006809494B
:101AE000884202D00849884207D18168074B1940D3
:101AF000062905D0DB1F994202D00168114301601D
:101B000000207047002C0140000400400700010045
:101B10000168CA6852085200CA6001680A6A084B24
:101B20001A4207D10A6A9B101A4203D10A68520866
:101B300052000A60012120304177002070470000E8
:101B40001111000070470000F8B504460068C6682F
:101B500005690027A907002913DAB10711D5F91E75
:101B6000016101202077206880698007204602D02B
:101B7000FFF7E8FF04E000F08BF8204600F089F85A
:101B80002777680716D5700714D504202168C0434D
:101B9000086102202077206880698005800F204638
:101BA00002D0FFF7CFFF04E000F072F8204600F00B
:101BB00070F82777280715D5300713D50820216836
:101BC000C0430861042020772068C0698007204650
:101BD00002D0FFF7B7FF04E000F05AF8204600F00B
:101BE00058F82777E80616D5F00614D51020216896
:101BF000C0430861082020772068C0698005800FF5
:101C0000204602D0FFF79EFF04E000F041F8204696
:101C100000F03FF82777E80708D0F00706D001204A
:101C20002168C0430861204600F034F8280601D43A
:101C3000A80407D5300605D5216813480861204659
:101C4000FFF7FBFEE80507D5300605D521680F48EC
:101C500008612046FFF7F0FE680608D5700606D535
:101C600040202168C0430861204600F033F8A806F0
:101C700008D5B00606D520202168C043086120465B
:101C8000FFF7DCFEF8BD00007FDFFFFFFFFEFFFF78
:101C90007047704710B500680A49884211D10A4957
:101CA0000A4A0888401C80B20880904209D100206E
:101CB00008800831487088700120C8700448FFF718
:101CC00027FF10BD0020004000000020B80B0000DE
:101CD000100100207047FEE701688A69D24392072D
:101CE00001D400228A6200688169C943C90703D010
:101CF000816901221143816170470000F7B50446F4
:101D0000006882B0816900262746C90640373546FB
:101D10000092002945DA1021C16132E00398401C8D
:101D20002FD0FEF7F5FF0099411A0398814201D8A0
:101D3000002826D120684168012292031140BA7818
:101D40008369DB431B0417D401239B03994213D0FF
:101D5000202A11D0416819434160FEF7D9FF009055
:101D60000AE0FEF7D5FF01460098081A192803D9A2
:101D700020200543012604E020688069C0438006D6
:101D8000EFD420688069C043800602D5002EC5D0FC
:101D900004E0002E02D121682020C8610420054300
:101DA000012621688869C20504D501221543120263
:101DB000CA610126410508D508210D43CA012168E1
:101DC000CA610126800502D40AE0800506D50220FA
:101DD000054321680002C861012601E0002E0FD0F2
:101DE0002046FFF779FF20684168074A11404160AB
:101DF000606C28436064202078700020B8703870D0
:101E0000304605B0F0BD000000E800FE890510B5C1
:101E1000890D12041143029C1943026821434900B1
:101E200050684908630D034C2343984308435060AE
:101E300010BD0000FF63FF03F8B51D4617460E46B0
:101E4000044626E029462046069AFFF757FF002859
:101E500001D00120F8BD681C1BD0FEF759FF069980
:101E6000401AA84201D8002D13D12068816930465C
:101E700088430CD00020B8420BD1616C2020014374
:101E80006164403460700020A0702070E1E70120A0
:101E9000F1E7206881693046884304D00020B842C9
:101EA000D0D00020F8BD0120F9E70000F7B50025EB
:101EB00020270646044640363EE02046029A019915
:101EC000FFF71CFF002800D0012520688169C94365
:101ED000890619D4002D17D181698169C943C906C2
:101EE00010D41021C161042060642068C76120689B
:101EF0004168164A1140416077700020B070307020
:101F0000012501E000206064FEF702FF014602980F
:101F1000091A0198814201D800280DD1002D0BD15A
:101F200020688069C043400706D5606C3843606410
:101F3000777000203070012520688069C043400719
:101F400001D5002DB9D02846FEBD000000E800FEF6
:101F500070B516460D4604461EE032462946204618
:101F6000FFF7CCFE002801D0012070BDFEF7D0FEA7
:101F7000801BA84201D8002D0ED120688069C04383
:101F8000800609D5616C2020014361644034607093
:101F90000020A0702070E7E720688069C0438006B9
:101FA000DBD4002070BD70B516460D46044620E017
:101FB000324629462046FFF7A1FE002801D0012025
:101FC00070BD681C15D0FEF7A3FE801BA84201D887
:101FD000002D0ED120688069C043800709D5616C4F
:101FE000202001436164403460700020A0702070A4
:101FF000E5E720688069C0438007D9D4002070BD20
:102000008068C007C00F704780684007C00F7047E6
:10201000026807239B059A430A430260704710B584
:1020200043690424214007248C40A3438A4013437E
:10203000436110BD3EB5002419480094019417492E
:10204000029401608460C460090504614160042158
:1020500041610476447684760121C16101462031D4
:102060000C70446284620C730722426304638263CF
:102070000C77C464FEF7E6FB002801D0FEF7CDFA2A
:10208000084800900194694602940548FEF7C8FA92
:10209000002801D0FEF7C1FA3EBD00000024014037
:1020A0005800002000020024F0B587B014216846D3
:1020B000FEF73DF82348426B02210A434263426B1C
:1020C0000A400592416B012421434163406B1E4D40
:1020D000204005273F070590002229463846FEF795
:1020E00010FE002284211948FEF70BFE0095002502
:1020F000032601AA70C269463846FEF747FD042050
:102100006A4671C269461148FEF740FD20200090E2
:10211000312000040190694602940C48FEF736FD18
:102120008020694631C1694608480395FEF72EFDB7
:10213000002201210720FFF75FF80720FFF750F882
:1021400007B0F0BD001002403F0300000004005043
:1021500010B51348114901601249416000218160A6
:102160000161416181610122C161C2600162FEF7CA
:102170001FFE002801D0FEF750FA00210848FEF7A4
:10218000CDFD002801D0FEF748FA00210448FEF7F3
:10219000EAFD002801D0FEF740FA10BD00540040CF
:1021A000BC000020BC7D701010B50A4808490160D1
:1021B0003F21416000218160074A0161C260816165
:1021C000FFF73DFC002801D0FEF727FA10BD000004
:1021D0000020004010010020E7030000FEE77047E8
:1021E000F8B50024E4430123294A882129480094B2
:1021F000FEF7C4FE0A20FEF763FC254A0623921D63
:10220000892124480094FEF731FE214CA41D20783A
:10221000617800024018FEF729F900221E4BFEF7F4
:1022200045F800221D4BFEF7A9F800221C4BFEF7D3
:102230002EF8A51F6961064628610F46E0782179CE
:1022400000024018FEF712F90022164BFEF72EF896
:102250000022124BFEF792F80022134BFEF717F8FC
:10226000E961A861044600910022104B30463946CE
:10227000FEF71CF8FEF708F9688000220B4B204699
:102280000099FEF713F8FEF7FFF8A880F8BD0000EC
:1022900038000020BC00002000E06540E0FFEF4077
:1022A0000080464000405F4000001840000024408D
:1022B000F8B5052500242D070E46012809D002286F
:1022C0002CD003284DD13046A04000064AD501222B
:1022D00049E001277F023046A040000601D50122D7
:1022E00000E0002204212D48FEF70BFD00223946B4
:1022F0002846FEF706FD012239462846FEF701FD75
:10230000641CE4B2082CE6D3FF24013400222146E9
:102310002846FEF7F6FC012221461FE03046A04089
:10232000000601D5012200E0002201212846FEF727
:10233000E8FC002204212846FEF7E3FC01220421E8
:102340002846FEF7DEFC641CE4B2082CE6D300222B
:1023500002212846FEF7D5FC012202212846FEF77D
:10236000D0FCF8BD002208212846FEF7CAFC002256
:1023700020212846FEF7C5FC012220212846FEF731
:10238000C0FC641CE4B2082C9DD300221021284616
:10239000FEF7B7FC01221021E0E700000004005026
:1023A0007047000070B554001D4D8026012806D0EE
:1023B00001291FD002291FD0032926D12AE0012993
:1023C00004D0022904D003290BD10DE0FE210CE03A
:1023D000FD210320FFF76CFF295B31430120FFF74C
:1023E00067FF0021012012E0FB210320FFF760FFBF
:1023F000295BF3E7F7210EE0EF210320FFF758FFF9
:10240000295B31430220FFF753FF00210220FFF731
:102410004FFF70BDDF210320FFF74AFF295BF1E783
:102420001C00002010B5FEF785FE10BD30B591B040
:1024300034216846FDF77BFE002501200D950E95A1
:102440000F9540021095FEF7DBFE0224E001039099
:1024500000944020059008200A9080030B90079478
:10246000000304950C90099508946846FFF7D0F88E
:10247000002801D072B6FEE707200DA931C1022164
:102480000DA81095FEF7D2FF002801D072B6FEE726
:1024900011B030BD7047000010B50248FFF754FB83
:1024A00010BD00001001002070B502681B4B1C4ECF
:1024B000984201D0B04203D17024A2434C68224319
:1024C000184C194D984208D0B04206D0174EB04271
:1024D00003D0A04201D0A84204D103263602B24361
:1024E000CE6832438026B2434E69324302608A6826
:1024F000C2620A688262984203D0A04201D0A84218
:1025000001D109690163012141610169C90703D052
:10251000016949084900016170BD0000002C0140BB
:1025200000040040004401400048014000200040F9
:102530002021020C01D010211046020A01D01046C1
:102540000839020901D01046091F820801D010463F
:10255000891E420801D0881E7047081A7047000083
:102560008307FF22DB0E9A408907090E9940002855
:1025700008DB830809489B001B1818689043084330
:10258000186070470007000F0838830804489B0054
:102590001B18D86990430843D861704700E400E0F5
:1025A00000ED00E002E008C8121F08C1002AFAD1BD
:1025B00070477047002001E001C1121F002AFBD1C3
:1025C00070470000FEF7BEFDFFF730FFFFF76CFD20
:1025D000FFF7BEFDFFF72EFDFFF7E6FD6420FEF7D7
:1025E0006FFA00210320FFF763FE00210220FFF7AE
:1025F0005FFE00210120FFF75BFE364C0025657071
:10260000A5702570E570FFF70FFA01210020FEF795
:1026100045FE6078012802D0002848D04EE0A0781E
:1026200000284BD12078012802D12570FFF7D8FD72
:10263000294E64213088FDF75DFDC2B201210220E0
:10264000FFF7B0FE0A213088FDF754FD0A21FDF79F
:1026500051FD0A4602210846FFF7A4FE0A213088F0
:10266000FDF748FD0A4603210220FFF79BFE1B4EA3
:1026700064213088FDF73EFDC2B201210846FFF714
:1026800091FE0A213088FDF735FD0A21FDF732FD64
:102690000A4602210120FFF785FE0A213088FDF756
:1026A00029FD0A4603210120FFF77CFE06E0A07801
:1026B000012803D12078012800D12570E078012875
:1026C000A7D1FFF7B1F901210020FEF7E7FDE57082
:1026D0009FE70000080000203A0000203C00002096
:1026E00000000000000000000000000000000000EA
:1026F00000000000000000000000000000000000DA
:1027000001000000020000000300000004000000BF
:10271000060000000700000008000000090000009B
:10272000402700080000002058000000A4250008F1
:10273000982700085800002008050000B42500086C
:102740000000000000000000000000000100000088
:1027500004000000000000000024F4003F00060018
:102760005B004F0066006D007D0007007F006F007A
:102770008000000000000000FD00000000000000DC
:102780000000000000000000000000000000000049
:08279000000000000000000041
:04000005080000C12E
:00000001FF
